S315080000001809002485950108110800081908000830
S315080000102108000829080008310800080000000027
S315080000200000000000000000000000003908000879
S3150800003041080008000000004908000851080008A7
S315080000409F9501089F9501089F9501089F950108AE
S315080000509F9501089F9501089F9501089F9501089E
S315080000609F9501089F9501089F9501089F9501088E
S315080000709F9501089F9501089F9501089F9501087E
S315080000809F9501089F9501089F9501089F9501086E
S315080000909F9501089F9501089F9501089F9501085E
S315080000A09F9501089F9501089F9501089F9501084E
S315080000B09F9501089F9501089F9501089F9501083E
S315080000C09F9501089F9501089F9501089F9501082E
S315080000D09F9501089F9501089F9501089F9501081E
S315080000E09F9501089F950108000000009F9501084B
S315080000F09F9501089F9501089F9501089F950108FE
S315080001009F9501089F9501089F9501089F950108ED
S315080001109F9501089F9501089F9501089F950108DD
S315080001209F9501089F9501089F9501089F950108CD
S315080001309F9501089F9501089F9501089F950108BD
S3150800014000000000000000000000000000000000A1
S315080001509F9501089F9501089F9501089F9501089D
S315080001609F9501089F9501089F9501089F9501088D
S315080001709F9501089F9501089F9501089F9501087D
S315080001809F9501089F9501089F9501089F9501086D
S315080001909F9501089F9501089F9501089F9501085D
S315080001A09F9501089F9501089F9501089F9501084D
S315080001B09F9501089F9501089F9501089F9501083D
S315080001C09F9501089F9501089F9501089F9501082D
S315080001D09F9501089F9501089F9501089F9501081D
S315080001E09F9501089F9501089F9501089F9501080D
S315080001F09F9501089F9501089F9501089F950108FD
S315080002009F9501089F9501089F9501089F950108EC
S315080002109F9501089F9501089F9501089F950108DC
S315080002209F9501089F9501089F9501080000000009
S315080002309F9501089F950108000000009F950108F9
S315080002409F9501089F9501089F9501089F950108AC
S315080002509F9501089F9501089F9501089F9501089C
S315080002609F9501089F9501089F9501089F9501088C
S315080002709F9501089F9501089F95010800000000B9
S315080002809F9501089F9501089F95010800000000A9
S31508000290000000009F950108DFF80CD019F096F9C8
S315080002A000480047C9030008180900240000000098
S315080002B080B592B00020119010900F900E900D907E
S315080002C0FFE744F2E040C5F60200016841F010017C
S315080002D00160006800F010000C900C98FFE7FFE73B
S315080002E044F2E040C5F60200016841F004010160ED
S315080002F0006800F004000B900B98FFE7FFE744F254
S31508000300E040C5F60200016841F08001016000681E
S3150800031000F080000A900A98FFE7FFE744F2E04001
S31508000320C5F60200016841F001010160006800F0AD
S31508000330010009900998FFE741F20000C5F602009E
S315080003400190082100910022069207F085FB069A83
S315080003500020C5F6020003901021029107F07CFBED
S31508000360069A40F60000C5F602000790302104916F
S3150800037007F072FB009A019806990D9201220592E0
S315080003800E920F9110910DA9089107F049F8DDF822
S3150800039008C00398059B069A0899CDF834C00E93B1
S315080003A00F92109207F03CF8DDF810C0059B069AEC
S315080003B007980899CDF834C00E930F92109207F05B
S315080003C02FF812B080BD000080B5A6B0002022909C
S315080003D000F0A6F84EF61450CEF20000006880032E
S315080003E0002801D5FFE71AE0BFF34F8FBFF36F8FE1
S315080003F04EF65071CEF2000100200860BFF34F8F11
S31508000400BFF36F8F4EF61451CEF20001086840F420
S3150800041000300860BFF34F8FBFF36F8FFFE74EF6CC
S315080004201450CEF200000068C003002801D5FFE78B
S315080004303CE04EF68451CEF2000100200860BFF37E
S315080004404F8F4EF68050CEF2000000682590259812
S31508000450C0F34E302490FFE72598C0F3C9002390D7
S31508000460FFE724992398800761F34D104EF66071D3
S31508000470CEF2000108602398411E23910028F0D18E
S31508000480FFE72498411E24910028E5D1FFE7BFF332
S315080004904F8F4EF61451CEF20001086840F48030B2
S315080004A00860BFF34F8FBFF36F8FFFE701F0C0F807
S315080004B000F062F8FFF7FCFE00F0DAF800F0F8FB4F
S315080004C002A8802119F077F8002000908DF807001F
S315080004D001F026F8009800F087FC009800F0E0FC90
S315080004E000F02AFD009949F23262C0F60102084678
S315080004F000F092FE4FF4FA7001F0CEF940F2A00037
S31508000500C2F200403C2113F097FEFFE72420C4F214
S31508000510000000688DF80700F8E700BF00BF00BFBD
S3150800052080B586B000200190059004900390029053
S3150800053001F0DEFD019801218DF808108DF80900FB
S3150800054003901F228DF8102087228DF811208DF830
S3150800055012008DF813008DF814108DF815108DF80B
S3150800056016008DF8170002A801F016FE042001F007
S31508000570D3FD06B080BD00BF80B59EB00BA84C2148
S3150800058019F019F8002001900A9009900890079030
S315080005900690059004900390022007F04DFCFFE7B3
S315080005A00020029044F61800C5F60200016841F4DE
S315080005B040410160006800F44040029040F22C403F
S315080005C0C5F60000016841F001010160006800F00D
S315080005D0010002900298FFE7FFE744F61800C5F607
S315080005E00200006800F40050B0F5005F01D0FFE794
S315080005F0F3E701200B904FF480300C900220149002
S31508000600159005211691C0221792189019911A90E3
S3150800061008201B9000201C901D900BA808F0E4FAF7
S3150800062018B1FFE700F01CF8FFE73F20039003200E
S315080006300490002005900820069040200790089016
S315080006404FF4806109910A9003A8042109F060F823
S3150800065018B1FFE700F004F8FFE71EB080BD00BF41
S3150800066081B0EFF3108072B60090FFE7FEE7000056
S3150800067080B582B040F21400C2F20040009043F206
S315080006800001C4F2010101604FF4800141600021BC
S31508000690019181600722C2604FF0007202614FF03B
S315080006A0807242614FF080628261C161016241627B
S315080006B08162C16241638163C1630164416481648B
S315080006C0C1640165416581650CF0F2FD18B1FFE76B
S315080006D0FFF7C6FFFFE702B080BD00BF00BF00BF3F
S315080006E080B5B8B037900020369035903490339066
S315080006F0329002A8C02118F05EFF3798006843F2CE
S315080007000001C4F20101884249D1FFE700210391A3
S315080007104FF480500290192204924FF48072059289
S315080007201022069202220792089209910A910B91C9
S315080007301A9002A809F0F8FD18B1FFE7FFF790FF35
S31508000740FFE7FFE744F2F040C5F60200016841F40E
S3150800075080510160006800F4805001900198FFE71D
S31508000760FFE744F2E040C5F60200016841F00101E6
S315080007700160006800F0010000900098FFE7E020A3
S315080007803290022033900020349035900520369020
S315080007900020C5F6020032A906F042FEFFE738B08F
S315080007A080BD00BF00BF00BF80B582B00190019830
S315080007B0006843F20001C4F2010188420FD1FFE745
S315080007C044F2F041C5F60201086820F4805008603A
S315080007D00020C5F60200E02107F006F8FFE702B0A0
S315080007E080BD00000000000081B0FFE744F2F4403D
S315080007F0C5F60200016841F002010160006800F0D8
S31508000800020000900098FFE701B070470000000062
S31508000810FFE7FEE700BF00BFFFE7FEE700BF00BF38
S31508000820FFE7FEE700BF00BFFFE7FEE700BF00BF28
S31508000830FFE7FEE700BF00BF704700BF00BF00BF6D
S31508000840704700BF00BF00BF704700BF00BF00BFB2
S3150800085080B500F0CDFF80BD81B04EF68851CEF24E
S315080008600001086840F47000086042F20000C5F212
S315080008700020006800F00F0006280AD8FFE742F2B9
S315080008800001C5F200210868072262F30300086028
S31508000890FFE744F20041C5F60201086840F001008E
S315080008A0086044F21042C5F602020020106008688B
S315080008B04EF67F52CEF6F6221040086042F200004D
S315080008C0C5F20020006800F00F0008280AD3FFE7E9
S315080008D042F20001C5F200210868072262F303000C
S315080008E00860FFE744F21841C5F6020100200090AF
S315080008F0086044F21C41C5F60201086044F2204132
S31508000900C5F60201086044F22842C5F6020240F222
S315080009100021C0F20221116044F22C42C5F60202FF
S315080009200021C0F2FF11116044F23042C5F60202FE
S3150800093040F28021C0F20111116044F23442C5F63A
S315080009400202106044F23842C5F60202116044F20F
S315080009503C42C5F60202106044F24042C5F6020265
S31508000960116044F24441C5F60201086044F20042AF
S31508000970C5F60202116821F48021116044F2604133
S31508000980C5F60201086041F20001C5F60041096892
S31508000990B0EB517F07D1FFE748F20811C5F2001105
S315080009A001200860FFE744F20001C5F2002143F286
S315080009B0D200086001B070478BB044F21040C5F60B
S315080009C00200006800F0380001460191182800F27C
S315080009D033810199DFE811F0190030013001300147
S315080009E0300130013001300127003001300130017B
S315080009F030013001300130012D0030013001300165
S31508000A003001300130013001330044F20040C5F6B0
S31508000A1002000068C0F3C10149F20000C0F2D030FC
S31508000A20C840049016E140F60010C0F23D0004905C
S31508000A3010E147F64000C0F27D1004900AE144F246
S31508000A402840C5F60200016801F003010991006813
S31508000A50C0F30510089044F22C40C5F60200006861
S31508000A6000F001000790079844F23441C5F60201E8
S31508000A70096889B2C908484300EE100AB8EE400A68
S31508000A808DED030A0898002800F0D280FFE7099840
S31508000A90009040B1FFE70098012837D0FFE700989B
S31508000AA0022857D07AE044F20040C5F602000068F2
S31508000AB0C0F3C10149F20000C0F2D030C840069028
S31508000AC09DED060AB8EE400A9DED081AB8EE411AE1
S31508000AD080EE010A44F23040C5F6020000686FF362
S31508000AE05F2001EE100AB8EE411A9DED032A9FED2C
S31508000AF06D3A82EE032A31EE021AB7EE002A31EE7B
S31508000B00021A20EE010A8DED020A7AE09DED080A26
S31508000B10B8EE401A9FED640A80EE010A44F23040AE
S31508000B20C5F6020000686FF35F2001EE100AB8EE02
S31508000B30411A9DED032A9FED5B3A82EE032A31EEB8
S31508000B40021AB7EE002A31EE021A20EE010A8DEDDE
S31508000B50020A56E09DED080AB8EE401A9FED500AC3
S31508000B6080EE010A44F23040C5F6020000686FF3D1
S31508000B705F2001EE100AB8EE411A9DED032A9FED9B
S31508000B80493A82EE032A31EE021AB7EE002A31EE0E
S31508000B90021A20EE010A8DED020A32E044F2004004
S31508000BA0C5F602000068C0F3C10149F20000C0F2B0
S31508000BB0D030C84006909DED060AB8EE400A9DED75
S31508000BC0081AB8EE411A80EE010A44F23040C5F61A
S31508000BD0020000686FF35F2001EE100AB8EE411AB2
S31508000BE09DED032A9FED2F3A82EE032A31EE021A73
S31508000BF0B7EE002A31EE021A20EE010A8DED020A3E
S31508000C00FFE744F23040C5F60200006881B20120D1
S31508000C1000EB51200A909DED020A9DED0A1AB8EEE6
S31508000C20411A80EE010ABCEEC00A8DED040A02E004
S31508000C3000200490FFE70DE044F20040C5F60200EC
S31508000C400068C0F3C10149F20000C0F2D030C840C4
S31508000C500490FFE744F21842C5F602021068C0F392
S31508000C60032049F21A61C0F60101085C0590059B4C
S31508000C700498D84004900498126802F00F02895C20
S31508000C8001F01F01C84040F20401C2F200410860A9
S31508000C90049840F20001C2F2004108600BB07047A8
S31508000CA020BCBE4B000000460024744A0000000029
S31508000CB080B58EB005A80090242118F07CFC009918
S31508000CC00022019204920392029240F2A000C2F21C
S31508000CD000404FF080430360426082604FF0FF336C
S31508000CE0C360026182610323059306920123079379
S31508000CF0089209920A920B930C920D9213F0CCF972
S31508000D0018B1FFE7FFF7ACFCFFE70020029004905C
S31508000D1040F2A000C2F2004002A918F055F918B135
S31508000D20FFE7FFF79DFCFFE70EB080BD00BF00BFE1
S31508000D3080B588B00790002006900590049003902F
S31508000D40029007980068B0F1804F2ED1FFE7FFE7C1
S31508000D5044F2E840C5F60200016841F0010101606D
S31508000D60006800F0010001900198FFE7FFE744F2F0
S31508000D70E040C5F60200016841F001010160006823
S31508000D8000F0010000900098FFE70320029002207F
S31508000D900390002004900590012006900020C5F6D7
S31508000DA0020002A906F03CFBFFE708B080BD00BFC1
S31508000DB080B582B0019001980068B0F1804F0FD1DC
S31508000DC0FFE744F2E841C5F60201086820F0010091
S31508000DD008600020C5F60200032106F005FDFFE7BE
S31508000DE002B080BD0000000080B582B08DF8070013
S31508000DF09DF8070028B9FFE7A620002100F010F8A3
S31508000E00FFE79DF80700012805D1FFE7A720002185
S31508000E1000F006F8FFE702B080BD00BF00BF00BFC4
S31508000E2080B584B08DF80F008DF80E109DF80E0071
S31508000E3040B1FFE70020C5F602001021012206F0A6
S31508000E400BFE07E00020C5F602001021002206F07E
S31508000E5003FEFFE740F60000C5F6020000901021E9
S31508000E600191002206F0F8FD40F21400C2F200409B
S31508000E700DF10F01012202924FF4FA730CF0A8FB50
S31508000E800199029A009806F0E7FD0199029A002056
S31508000E90C5F6020006F0E0FD04B080BD00BF00BF45
S31508000EA080B584B08DF80F009DF80F0050B9FFE7A4
S31508000EB0C82000210291FFF7B3FF0299A120FFF78E
S31508000EC0AFFFFFE79DF80F0001280AD1FFE7C02012
S31508000ED000210191FFF7A4FF0199A020FFF7A0FFC9
S31508000EE0FFE704B080BD00BF80B582B08D20002129
S31508000EF00191FFF795FF01991420FFF791FF0199DA
S31508000F00AF20FFF78DFF02B080BD00BF00BF00BF56
S31508000F1080B582B08D2000210191FFF781FF0199EC
S31508000F201020FFF77DFF0199AE20FFF779FF02B089
S31508000F3080BD00BF00BF00BF80B582B000208DF81D
S31508000F400700FFE79DF8070007282BDCFFE79DF859
S31508000F500700B030C0B200210091FFF761FF009989
S31508000F601020FFF75DFF00990846FFF759FF009824
S31508000F708DF80600FFE79DF806007F280BDCFFE7E3
S31508000F8000200121FFF74CFFFFE79DF8060001301E
S31508000F908DF80600EFE7FFE79DF8070001308DF8AA
S31508000FA00700CFE702B080BD80B582B08DF8070094
S31508000FB08DF806109DF80600B030C0B200210091E9
S31508000FC0FFF72EFF00999DF8070000091030FFF77C
S31508000FD027FF00999DF8070000F00F00FFF720FF94
S31508000FE002B080BD00BF00BF80B584B0039000206A
S31508000FF08DF80B00FFE79DF80B00072825DCFFE7B7
S315080010009DF80B1000200190FFF7CEFF01988DF890
S315080010100A00FFE79DF80A007F280FDCFFE7039820
S3150800102000780121FFF7FCFE039801300390FFE7E3
S315080010309DF80A0001308DF80A00EBE7FFE79DF8F6
S315080010400B0001308DF80B00D5E704B080BD00BF5A
S3150800105080B584B08DF80F008DF80E10029200202E
S315080010608DF80600FFE79DF8060001282ADCFFE751
S315080010709DF80F009DF80E10FFF796FF00208DF8DB
S315080010800700FFE79DF807000F280FDCFFE7029827
S3150800109000780121FFF7C4FE029801300290FFE7AD
S315080010A09DF8070001308DF80700EBE79DF80E0064
S315080010B001308DF80E00FFE79DF8060001308DF827
S315080010C00600D0E704B080BD80B584B08DF80F0067
S315080010D08DF80E10029200208DF80600FFE79DF8A5
S315080010E0060001282ADCFFE79DF80F009DF80E1080
S315080010F0FFF75AFF00208DF80700FFE79DF8070065
S3150800110007280FDCFFE7029800780121FFF788FE21
S31508001110029801300290FFE79DF8070001308DF82C
S315080011200700EBE79DF80E0001308DF80E00FFE78B
S315080011309DF8060001308DF80600D0E704B080BDA2
S3150800114080B584B08DF80F008DF80E1002929DF8C8
S315080011500F009DF80E10FFF727FF00208DF80700F7
S31508001160FFE79DF8070005280FDCFFE702980078DF
S315080011700121FFF755FE029801300290FFE79DF81E
S31508001180070001308DF80700EBE704B080BD00BF0B
S3150800119080B588B084460A988DF81FC08DF81E1051
S315080011A08DF81D2006938DF8170003208DF8120080
S315080011B09DF81F008DF813009DF81E008DF8140089
S315080011C09DF81D008DF8150040F60000C5F60200D2
S315080011D0039020210291002206F03EFC40F2140002
S315080011E0C2F2004001900DF1120104224FF4FA7385
S315080011F000930CF0EDF9009B019806999DF81720CD
S315080012000CF08EFC02990398012206F025FC08B022
S3150800121080BD00BF00BF00BF80B596B08DF85700EF
S315080012208DF85610149200208DF84F00FFE7149899
S315080012309DF84F10405C0128C0F20481FFE714981E
S315080012409DF84F10405CB0284CDBFFE714989DF8DA
S315080012504F10405CF72845DCFFE714999DF84F00CE
S3150800126008444078A1283DDBFFE714989DF84F20F5
S315080012708118805CB0384A785E2110FB012145F25E
S31508001280A05000EB411140F21000C2F2004001608C
S3150800129041888DF84E100168090A8DF84D100068CE
S315080012A08DF84C009DF84E009DF84D109DF84C2089
S315080012B0EC462023CCF800300BAB0693FFF768FF0B
S315080012C0069A9DF857009DF85610FFF7C1FE9DF83F
S315080012D0570010308DF857009DF84F0002308DF8F2
S315080012E04F00AEE014989DF84F10405CA12852DBE1
S315080012F0FFE714989DF84F10405CA3284BDCFFE7E6
S3150800130014999DF84F0008444078A12843DBFFE76D
S3150800131014989DF84F10405CA1385E21414340F275
S315080013201000C2F2004004900160149A9DF84F1014
S315080013301144497802681144A139016001684901DC
S31508001340016041888DF84E100168090A8DF84D1024
S3150800135000688DF84C009DF84E009DF84D109DF8DC
S315080013604C20EC462023CCF800300BAB0593FFF756
S315080013700FFF059A9DF857009DF85610FFF768FE6F
S315080013809DF8570010308DF857009DF84F00023031
S315080013908DF84F0054E014989DF84F10405C2028B3
S315080013A047DBFFE714989DF84F10405C7E2840DC29
S315080013B0FFE714989DF84F10405CA0F1200140F219
S315080013C01000C2F200400290016001680901016044
S315080013D001684CF68072C0F203021144016041882C
S315080013E08DF84E100168090A8DF84D1000688DF8C1
S315080013F04C009DF84E009DF84D109DF84C20EC468B
S315080014001023CCF8003007AB0393FFF7C1FE039A0D
S315080014109DF857009DF85610FFF756FE9DF85700A1
S3150800142008308DF857009DF84F0001308DF84F00B1
S3150800143005E09DF84F0001308DF84F00FFE7FFE704
S31508001440FFE7F4E616B080BD80B588B08DF81F00BA
S315080014508DF81E10069200208DF81700FFE70698F3
S315080014609DF81710405C012855DBFFE706989DF8A4
S315080014701710405C202847DBFFE706989DF81710F1
S31508001480405C7E2840DCFFE706989DF81710405C14
S31508001490A0F1200140F21000C2F200400190016064
S315080014A00168C900016001684BF6C072C0F2030208
S315080014B01144016041888DF816100168090A8DF8F3
S315080014C0151000688DF814009DF816009DF8151083
S315080014D09DF81420EC460823CCF8003003AB0293A1
S315080014E0FFF756FE029A9DF81F009DF81E10FFF79B
S315080014F027FE9DF81F0006308DF81F009DF817007F
S3150800150001308DF8170005E09DF8170001308DF8B9
S315080015101700FFE7A3E708B080BD00BF00BF00BF04
S3150800152080B586B0AE2000210491FFF779FC0499B6
S315080015300846FFF775FC04991020FFF771FC04991B
S3150800154040200290FFF76CFC04998120FFF768FCA5
S315080015500499CF20FFF764FC0499A120FFF760FCEB
S315080015600499C820FFF75CFC0499A6200390FFF7AE
S3150800157057FC0499A820FFF753FC04993F20FFF76E
S315080015804FFC0499D320FFF74BFC04990846FFF754
S3150800159047FC0499D520FFF743FC04998020FFF700
S315080015A03FFC0499D920FFF73BFC0499F120FFF78B
S315080015B037FC0499DA20FFF733FC04991220FFF769
S315080015C02FFC0499DB20FFF72BFC02980499FFF700
S315080015D027FC04992020FFF723FC04990220FFF733
S315080015E01FFC04998D20FFF71BFC04991420FFF7B4
S315080015F017FC0499A420FFF713FC03980499FFF736
S315080016000FFCFFF799FC0499AF20FFF709FC049833
S315080016108DF817006846012202600DF1170310467F
S315080016201146FFF7B5FD06B080BD000000000000BA
S3150800163080B582B0032000F02BFC08F0A9FA44F22A
S315080016401842C5F602021168C1F3032349F21A616A
S31508001650C0F60101CB5C03F01F03D8400090009848
S31508001660126802F00F02895C01F01F01C84040F2BF
S315080016700401C2F200410860009840F20001C2F27B
S31508001680004108600F2000F00FF818B1FFE70120AD
S31508001690019004E0FFF7A8F800200190FFE7019801
S315080016A002B080BD00BF00BF80B582B0009040F296
S315080016B00800C2F20040006818B9FFE7012001904F
S315080016C02DE040F20000C2F20040006840F2080136
S315080016D0C2F200410A684FF47A71B1FBF2F1B0FB2D
S315080016E0F1F000F0D1FC18B1FFE70120019016E0F7
S315080016F000980F280DD8FFE700994FF0FF30002219
S3150800170000F0EEFB009840F20C01C2F200410860BE
S3150800171002E00120019002E000200190FFE7019815
S3150800172002B080BD00BF00BF704700BF00BF00BF4A
S3150800173080B582B044F27C41C5F6020145F231001B
S31508001740C0F20100086000200190086044F2804160
S31508001750C5F602014CF22302C0F600220A600860B0
S3150800176044F28441C5F6020140F271220A6008601B
S3150800177044F28841C5F6020140F2FF72C0F22832EF
S315080017800A60086044F28C41C5F6020118220A6014
S31508001790086044F29041C5F602014CF2FF32CEF6DB
S315080017A0FF020A60086044F29441C5F602014FF44C
S315080017B09B720A60086044F29841C5F6020143F23A
S315080017C03302C3F2D7120A60086044F29C41C5F698
S315080017D002014DF6AA62C0F220020A60086000F013
S315080017E003F8019802B080BD704700BF00BF00BF74
S315080017F040F20800C2F20040026840F21011C2F23C
S315080018000041086810440860704700BF00BF00BF69
S3150800181040F21010C2F200400068704700BF00BFD7
S3150800182040F20C00C2F200400068704700BF00BFDB
S3150800183080B584B003900020029040F20800C2F2FE
S3150800184000400068039988421BD0FFE740F2080170
S31508001850C2F20041086801900398086040F20C0043
S31508001860C2F200400068FFF71FFF0290029838B1E5
S31508001870FFE7019840F20801C2F200410860FFE75D
S31508001880FFE7029804B080BD40F20800C2F20040AB
S315080018900068704700BF00BF80B584B00390FFF7AB
S315080018A0B7FF0290039801900198013048B1FFE70D
S315080018B040F20800C2F2004001680198084401900D
S315080018C0FFE7FFE7FFF7A4FF0299401A019988424C
S315080018D001D2FFE7F6E704B080BD00BF00BF00BF36
S315080018E04EF21001CEF20001086820F002000860EE
S315080018F0704700BF00BF00BF4EF21001CEF20001D4
S31508001900086840F002000860704700BF00BF00BFCB
S3150800191040F20050C0F20B10704700BF00BF00BF76
S3150800192041F20000C5F600400068000C704700BF91
S3150800193041F20000C5F6004000686FF31F3070479B
S315080019404EF60000C1F6F1700068704700BF00BF90
S315080019504EF60400C1F6F1700068704700BF00BF7C
S315080019604EF60800C1F6F1700068704700BF00BF68
S3150800197081B0009043F60041C5F60001086820F0E2
S315080019807000009A1043086001B0704700BF00BF9E
S3150800199081B0009043F60041C5F60001086820F0C2
S315080019A00200009A1043086001B0704700BF00BFEC
S315080019B081B0009043F60441C5F60001086820F09E
S315080019C03F00009A1043086001B0704700BF00BF8F
S315080019D080B582B043F60041C5F60001086840F0BC
S315080019E001000860FFF714FF0090FFE743F6004088
S315080019F0C5F600000068000700280BD4FFE7FFF7CC
S31508001A0007FF0099401A0B2803D3FFE7032001902C
S31508001A1003E0EBE700200190FFE7019802B080BDE4
S31508001A2043F60041C5F60001086820F00100086089
S31508001A30704700BF00BF00BF81B0009040F204416C
S31508001A40C5F60001086820F46000009A1043086093
S31508001A5001B0704700BF00BF82B00190009140F20C
S31508001A600441C5F600010868019A9043009A10439C
S31508001A70086002B0704700BF40F20441C5F6000195
S31508001A80086840F480700860704700BF00BF00BF58
S31508001A9040F20441C5F60001086820F48070086029
S31508001AA0704700BF00BF00BF82B001900091019847
S31508001AB058B9FFE740F20871C5F600010868BDF895
S31508001AC00220C0EA024008600CE040F20C71C5F63C
S31508001AD0000108684FF6FF729043BDF802201044D3
S31508001AE00860FFE702B0704740F22041C5F60001E2
S31508001AF0086840F001000860704700BF00BF00BFDB
S31508001B0040F22041C5F60001086820F0010008608F
S31508001B10704700BF00BF00BF40F22041C5F6000174
S31508001B20086840F480300860704700BF00BF00BFF7
S31508001B3040F22041C5F60001086820F480300860AC
S31508001B40704700BF00BF00BF81B0009040F220413F
S31508001B50C5F60001086820F00200009A10430860E4
S31508001B6001B0704700BF00BF82B00190009140F2FB
S31508001B702841C5F60001086820F0FF00019B009A7D
S31508001B8042EA03121043086002B0704700BF00BF64
S31508001B9041F20401C5F60041086840F001000860FA
S31508001BA0704700BF00BF00BF41F20401C5F60041FF
S31508001BB0086820F001000860704700BF00BF00BF3A
S31508001BC041F20401C5F60041086840F002000860C9
S31508001BD0704700BF00BF00BF41F20401C5F60041CF
S31508001BE0086820F002000860704700BF00BF00BF09
S31508001BF041F20401C5F60041086840F00400086097
S31508001C00704700BF00BF00BF41F20401C5F600419E
S31508001C10086820F004000860704700BF00BF00BFD6
S31508001C2081B0009044F20001C5F20021086820F056
S31508001C304070009A1043086001B0704700BF00BFAB
S31508001C4044F20000C5F20020006800F040707047BA
S31508001C5082B001900091019800F01F02012101FA5B
S31508001C6002FC20F01F020423C5F60003D05820EA20
S31508001C700C00D050019800F01F0201FA02F320F080
S31508001C801F014FF0B0428858984388509DF80200CB
S31508001C90C00600280ED5FFE7019800F01F020121B3
S31508001CA001FA02F320F01F014FF0B042885818439A
S31508001CB08850FFE79DF80200800600280FD5FFE749
S31508001CC0019800F01F02012101FA02F320F01F011A
S31508001CD00422C5F60002885818438850FFE702B068
S31508001CE0704700BF00BF00BF81B00090009800F0A9
S31508001CF01F02012101FA02F320F01F010822C5F68E
S31508001D00000288581843885001B0704700BF00BFCA
S31508001D1081B00090009A02F01F01012088406FF000
S31508001D200F0101EA52018822C5F60002885001B067
S31508001D30704700BF00BF00BF83B0029001910092B8
S31508001D409DF80600C00730B3FFE7009888B9FFE79B
S31508001D50029901F01F02012000FA02F36FF00F004A
S31508001D6000EA51018022C5F6000288589843885037
S31508001D7010E0029901F01F02012000FA02F36FF049
S31508001D800F0000EA51018022C5F600028858184360
S31508001D908850FFE7FFE79DF806008007002826D54C
S31508001DA0FFE7009888B9FFE7029901F01F020120B2
S31508001DB000FA02F36FF00F0000EA51018422C5F61B
S31508001DC0000288589843885010E0029901F01F02D3
S31508001DD0012000FA02F36FF00F0000EA5101842295
S31508001DE0C5F60002885818438850FFE7FFE703B096
S31508001DF0704700BF00BF00BF84B0039002910192F4
S31508001E00029878B9FFE7039800F01F02012101FA4A
S31508001E1002F320F01F010C22C5F6000288589843E9
S31508001E2088500EE0039800F01F02012101FA02F320
S31508001E3020F01F010C22C5F6000288581843885066
S31508001E40FFE703980009C00748B9FFE7039820F0A1
S31508001E501F001021C5F600010844009008E0039809
S31508001E6020F01F001421C5F6000108440090FFE782
S31508001E7000980068039A1E2101EA42020321914054
S31508001E8088430199914008430099086004B0704757
S31508001E9080B582B00190019800F002F802B080BDCA
S31508001EA083B00290029800F0070000904EF60C519D
S31508001EB0CEF200010868019001984FF6FF02104023
S31508001EC001900198009A40EA02200022C0F2FA52D4
S31508001ED0104301900198086003B0704700BF00BF27
S31508001EE080B586B005900491039200F011F802902F
S31508001EF00598019002980499039A00F031F8014672
S31508001F00019800F00DF806B080BD00BF00BF00BF05
S31508001F104EF60C50CEF200000068C0F3022070475F
S31508001F2082B0019000910198002809D4FFE7009833
S31508001F30000101994EF20042CEF2000288540AE0EE
S31508001F4000980001019901F00F014EF61452CEF2E5
S31508001F5000028854FFE702B0704700BF00BF00BF09
S31508001F6088B0079006910592079800F0070004903C
S31508001F700498C0F10700052803D3FFE70420019061
S31508001F8004E00498C0F107000190FFE70198039068
S31508001F9004980430062803D8FFE70020009003E0E1
S31508001FA0049803380090FFE7009802900698039972
S31508001FB0012202FA01F101390840029B984005996D
S31508001FC09A40013A1140084308B0704700BF00BF65
S31508001FD080B582B00190019800F002F802B080BD89
S31508001FE081B00090009800280DD4FFE7009901F011
S31508001FF01F02012090404A094EF20011CEF200015C
S3150800200041F82200FFE701B0704700BF00BF00BFDC
S3150800201080B582B00190019800F002F802B080BD48
S3150800202081B000900098002811D4FFE7009901F0CC
S315080020301F02012090404A094EF28011CEF200019B
S3150800204041F82200BFF34F8FBFF36F8FFFE701B050
S31508002050704700BF00BF00BF00F002F800BF00BF16
S31508002060BFF34F8F4EF60C51CEF20001086800F40C
S31508002070E0600422C0F2FA5210430860BFF34F8FA3
S31508002080FFE700BFFDE700BF80B582B00190019869
S3150800209000F002F802B080BD80B582B000900098CA
S315080020A00138B0F1807F03D3FFE70120019019E0E2
S315080020B0009801384EF21401CEF2000108604FF084
S315080020C0FF300F21FFF72CFF4EF21801CEF2000168
S315080020D0002008604EF21002CEF2000207211160BD
S315080020E00190FFE7019802B080BD00BF00BF00BFA6
S315080020F0BFF35F8F4EF62451CEF20001086820F434
S31508002100803008604EF69451CEF200010020086037
S31508002110704700BF00BF00BF81B00090009840F034
S3150800212001004EF69451CEF2000108604EF6245195
S31508002130CEF20001086840F480300860BFF34F8F84
S31508002140BFF36F8F01B0704781B0009000984EF6CC
S315080021509851CEF2000108604EF6A051CEF2000169
S31508002160086840F00100086001B0704700BF00BF72
S3150800217081B0009000984EF69851CEF200010860A2
S315080021804EF6A051CEF20001086820F00100086062
S3150800219001B0704700BF00BF10B581B0009000982D
S315080021A040784EF69851CEF2000108604EF6A051DE
S315080021B0CEF20001086820F0010008600098406827
S315080021C04EF69C52CEF200021060DDF800E09EF852
S315080021D00C0000079EF80B2040EA02609EF80020DB
S315080021E09EF808309EF809C09EF80A4040EAC440A6
S315080021F09EF80D4040EA84409EF80E4040EA44406E
S315080022009EF80FE040EA0E4040EA0C2040EA430000
S315080022101043086001B010BD80B5FFF779FE80BD98
S3150800222080B584B00390029101920093039800F060
S3150800223043F80299019A009B00F002F804B080BDA9
S3150800224089B00890079106920593079800F0070051
S3150800225004900498C0F10700052803D3FFE704207B
S31508002260019004E00498C0F107000190FFE7019887
S31508002270039004980430062803D8FFE7002000904E
S3150800228003E0049803380090FFE700980290089846
S315080022900299C840039A012101FA02F2013A104054
S315080022A0069A10600898029A9140013908400599E3
S315080022B0086009B0704700BF82B0009000980028F7
S315080022C009D4FFE700984EF20041CEF20001405CC7
S315080022D0000901900AE0009800F00F004EF614512C
S315080022E0CEF20001405C00090190FFE7019802B0B8
S315080022F0704700BF00BF00BF80B582B0019001984B
S3150800230000F002F802B080BD81B000900098002865
S315080023100DD4FFE7009901F01F02012090404A09F9
S315080023204EF20021CEF2000141F82200FFE701B08B
S31508002330704700BF00BF00BF80B582B0019001980A
S3150800234000F002F802B080BD82B000900098002824
S3150800235010D4FFE7009841094EF20020CEF20000A3
S3150800236050F82100009901F01F01C84000F0010053
S31508002370019002E000200190FFE7019802B0704743
S3150800238080B582B00190019800F002F802B080BDD5
S3150800239081B00090009800280DD4FFE7009901F05D
S315080023A01F02012090404A094EF28021CEF2000118
S315080023B041F82200FFE701B0704700BF00BF00BF29
S315080023C080B582B00190019800F002F802B080BD95
S315080023D082B000900098002810D4FFE700984109C1
S315080023E04EF20030CEF2000050F82100009901F0BC
S315080023F01F01C84000F00100019002E00020019092
S31508002400FFE7019802B0704781B000900098042851
S3150800241009D1FFE74EF21001CEF20001086840F03C
S315080024200400086008E04EF21001CEF200010868C8
S3150800243020F004000860FFE701B0704700BF00BF46
S3150800244080B500F001F880BD704700BF00BF00BF2F
S31508002450032070470000000010B58EB00C90FFF7FF
S31508002460D7F90A900C9820B9FFE701200D9000F0E3
S3150800247093BC0C98016801201022C4F20202914212
S31508002480079000F0A380FFE70C9801680120282236
S31508002490C4F202029142079000F09880FFE70C9878
S315080024A0016801204022C4F202029142079000F01E
S315080024B08D80FFE70C98016801205822C4F20202B9
S315080024C09142079000F08280FFE70C98016801208E
S315080024D07022C4F202029142079077D0FFE70C9867
S315080024E0016801208822C4F20202914207906DD049
S315080024F0FFE70C9801680120A022C4F2020291426B
S31508002500079063D0FFE70C9801680120B822C4F24F
S3150800251002029142079059D0FFE70C980168012002
S3150800252040F21042C4F20202914207904ED0FFE7F1
S315080025300C980168012040F22842C4F20202914236
S31508002540079043D0FFE70C980168012040F240420B
S31508002550C4F202029142079038D0FFE70C9801684E
S31508002560012040F25842C4F20202914207902DD04F
S31508002570FFE70C980168012040F27042C4F202029B
S315080025809142079022D0FFE70C980168012040F29B
S315080025908842C4F202029142079017D0FFE70C98CE
S315080025A00168012040F2A042C4F20202914207905B
S315080025B00CD0FFE70C9800684FF64831CBF6FD7152
S315080025C00844B0FA80F040090790FFE70798C0076B
S315080025D0002800F07381FFE70C98406A08B1FFE70E
S315080025E0FFE70C9902208863FFE70C9900204863EF
S315080025F0FFE70C9800681021C4F20201884200F037
S315080026008180FFE70C9800682821C4F202018842FD
S3150800261078D0FFE70C9800684021C4F2020188428E
S3150800262070D0FFE70C9800685821C4F2020188426E
S3150800263068D0FFE70C9800687021C4F2020188424E
S3150800264060D0FFE70C9800688821C4F2020188422E
S3150800265058D0FFE70C980068A021C4F2020188420E
S3150800266050D0FFE70C980068B821C4F202018842EE
S3150800267048D0FFE70C98006840F21041C4F2020106
S3150800268088423FD0FFE70C98006840F22841C4F220
S315080026900201884236D0FFE70C98006840F24041B4
S315080026A0C4F2020188422DD0FFE70C98006840F278
S315080026B05841C4F20201884224D0FFE70C9800680A
S315080026C040F27041C4F2020188421BD0FFE70C9821
S315080026D0006840F28841C4F20201884212D0FFE73E
S315080026E00C98006840F2A041C4F20201884209D061
S315080026F0FFE70C98006840F2B841C4F2020188422C
S3150800270007D1FFE70C980168086820F00100086007
S3150800271006E00C980168086820F001000860FFE7E9
S31508002720FFE70C9800680068C00788B1FFE7FFF765
S315080027306FF80A99401A062809D3FFE70C99202052
S3150800274088650C990320886301200D9024E3E8E747
S315080027500C98006800680B900B9848F23F01CFF67A
S31508002760106108400B900C998868D1F80CC00B6969
S315080027704A6940EA0C00184310438A691043CA693B
S315080027801043096A01430B9808430B900C98406A5A
S31508002790042808D1FFE70C99C86A096B01430B980E
S315080027A008430B90FFE741F20000C5F600400068B9
S315080027B04FF6FF718843B0F1005F40D3FFE70C98EE
S315080027C04068292807D3FFE70C98416801202F297C
S315080027D006902AD3FFE70C9840683F2807D3FFE7FF
S315080027E00C9841680120432906901ED3FFE70C98F0
S315080027F04068472807D3FFE70C9841680120492914
S31508002800069012D3FFE70C98416800204F290590DF
S3150800281008D3FFE70C9841680020532938BF0120E8
S315080028200590FFE705980690FFE70698C00728B1C8
S31508002830FFE70B9840F480100B90FFE7FFE70B9833
S315080028400C99096808600C98006840690B900B9809
S3150800285020F007000B900C98416A0B9808430B90E0
S315080028600C98406A042818D1FFE70C98816A0B98DF
S3150800287008430B900C98C06A70B1FFE70C9800F0FB
S315080028808FFA40B1FFE70C99402088650C99012022
S3150800289088630D9080E2FFE7FFE70B980C990968BB
S315080028A048610C9800F0ECFA09900C98006E00F05C
S315080028B01F013F2088400999886022E10C98016829
S315080028C0012045F20842C5F60202914204904ED014
S315080028D0FFE70C980168012045F21C42C5F6020282
S315080028E09142049043D0FFE70C980168012045F215
S315080028F03042C5F602029142049038D0FFE70C98A0
S315080029000168012045F24442C5F60202914204904C
S315080029102DD0FFE70C980168012045F25842C5F60C
S3150800292002029142049022D0FFE70C980168012028
S3150800293045F26C42C5F602029142049017D0FFE7B1
S315080029400C980168012045F28042C5F602029142C0
S3150800295004900CD0FFE70C9800684AF66C31CAF26E
S31508002960FD710844B0FA80F040090490FFE7049826
S31508002970C007002800F0BB80FFE70C98016801201B
S3150800298045F20842C5F60202914203904ED0FFE78F
S315080029900C980168012045F21C42C5F602029142D4
S315080029A0039043D0FFE70C980168012045F23042B6
S315080029B0C5F602029142039038D0FFE70C980168E9
S315080029C0012045F24442C5F60202914203902DD0F9
S315080029D0FFE70C980168012045F25842C5F6020245
S315080029E09142039022D0FFE70C980168012045F236
S315080029F06C42C5F602029142039017D0FFE70C9885
S31508002A000168012045F28042C5F602029142039010
S31508002A100CD0FFE70C9800684AF66C31CAF2FD71D3
S31508002A200844B0FA80F040090390FFE70398C0070E
S31508002A3008B1FFE7FFE70C9902208863FFE70C99C6
S31508002A4000204863FFE70C98006800680B900B9815
S31508002A506FF310100B900C988068402803D1FFE79D
S31508002A601020029008E00C9880688038B0FA80F050
S31508002A70400980030290FFE702980C99CA680B691F
S31508002A80D1F814C0D1F818E0CC694EEA040E4CEA25
S31508002A900E0C43EA0C031A4340EAD200096A40EADC
S31508002AA011110B9808430B900B980C99096808604C
S31508002AB00C9908684AF6F832CAF2FD7210444CF6C8
S31508002AC0CD42CCF6CC42A0FB02026FF0030000EA2E
S31508002AD0920008660C9800F0D3F908900C98006EDE
S31508002AE000F01F01012088400899486008E00C9909
S31508002AF0402088650C990320886301200D904BE1DE
S31508002B00FFE70C98016801201022C4F202029142E4
S31508002B10019000F00381FFE70C9801680120282244
S31508002B20C4F202029142019000F0F880FFE70C9887
S31508002B30016801204022C4F202029142019000F08D
S31508002B40ED80FFE70C98016801205822C4F20202C2
S31508002B509142019000F0E280FFE70C98016801209D
S31508002B607022C4F202029142019000F0D780FFE77A
S31508002B700C98016801208822C4F202029142019051
S31508002B8000F0CC80FFE70C9801680120A022C4F26F
S31508002B9002029142019000F0C180FFE70C9801689B
S31508002BA00120B822C4F202029142019000F0B680D8
S31508002BB0FFE70C980168012040F21042C4F20202B5
S31508002BC09142019000F0AA80FFE70C980168012065
S31508002BD040F22842C4F202029142019000F09E801F
S31508002BE0FFE70C980168012040F24042C4F2020255
S31508002BF09142019000F09280FFE70C98016801204D
S31508002C0040F25842C4F202029142019000F08680D6
S31508002C10FFE70C980168012040F27042C4F20202F4
S31508002C20914201907AD0FFE70C980168012040F2A2
S31508002C308842C4F20202914201906FD0FFE70C98D5
S31508002C400168012040F2A042C4F2020291420190BA
S31508002C5064D0FFE70C980168012040F2B842C4F23C
S31508002C6002029142019059D0FFE70C9801680120B1
S31508002C7045F20842C5F60202914201904ED0FFE79E
S31508002C800C980168012045F21C42C5F602029142E1
S31508002C90019043D0FFE70C980168012045F23042C5
S31508002CA0C5F602029142019038D0FFE70C980168F8
S31508002CB0012045F24442C5F60202914201902DD008
S31508002CC0FFE70C980168012045F25842C5F6020252
S31508002CD09142019022D0FFE70C980168012045F245
S31508002CE06C42C5F602029142019017D0FFE70C9894
S31508002CF00168012045F28042C5F602029142019020
S31508002D000CD0FFE70C9800684AF66C31CAF2FD71E0
S31508002D100844B0FA80F040090190FFE70198C0071F
S31508002D2090B3FFE70C9800F093F90C988068802818
S31508002D3004D1FFE70C9900204860FFE70C99087951
S31508002D40496E08600C98816EC06E48600C984068A1
S31508002D5088B1FFE70C98406808280CD8FFE70C985C
S31508002D6000F032FA0C98016F002008600C98416F49
S31508002D70806F486007E00C99002008670C9948673F
S31508002D800C998867FFE7FFE70C99002088650C9A7D
S31508002D90012191630D90FFE70D980EB010BD00BF9D
S31508002DA085B00490002003900498806908BBFFE76B
S31508002DB00498806A0290032819D80299DFE801F07E
S31508002DC0020C0216049890F82F00C00718B1FFE706
S31508002DD001200390FFE70BE00498C06AB0F1C07FBA
S31508002DE003D1FFE701200390FFE701E000E0FFE7DA
S31508002DF042E004988069B0F5005F23D1FFE70498A4
S31508002E00806A019003281BD80199DFE801F00205C2
S31508002E10020F0120039014E0049890F82F00C007D1
S31508002E2018B1FFE701200390FFE70AE00498C06A9B
S31508002E30B0F1C07F03D1FFE701200390FFE700E070
S31508002E40FFE718E00498806A0090032804D3FFE798
S31508002E500098032803D00CE0012003900AE00498A8
S31508002E6090F82F00C00718B1FFE701200390FFE78D
S31508002E7000E0FFE7FFE7FFE7039805B0704700BFEC
S31508002E8083B002900298016801201022C4F202025F
S31508002E909142009000F0A380FFE7029801680120A4
S31508002EA02822C4F202029142009000F09880FFE7BF
S31508002EB00298016801204022C4F202029142009061
S31508002EC000F08D80FFE70298016801205822C4F2BD
S31508002ED002029142009000F08280FFE702980168A2
S31508002EE001207022C4F202029142009077D0FFE7D7
S31508002EF00298016801208822C4F2020291420090D9
S31508002F006DD0FFE7029801680120A022C4F20202F0
S31508002F109142009063D0FFE7029801680120B82229
S31508002F20C4F202029142009059D0FFE70298016864
S31508002F30012040F21042C4F20202914200904ED0A3
S31508002F40FFE702980168012040F22842C4F2020213
S31508002F509142009043D0FFE702980168012040F2B1
S31508002F604042C4F202029142009038D0FFE702982C
S31508002F700168012040F25842C4F2020291420090D0
S31508002F802DD0FFE702980168012040F27042C4F292
S31508002F9002029142009022D0FFE7029801680120C0
S31508002FA040F28842C4F202029142009017D0FFE72D
S31508002FB002980168012040F2A042C4F2020291423E
S31508002FC000900CD0FFE7029800684FF64831CBF620
S31508002FD0FD710844B0FA80F040090090FFE70098B8
S31508002FE0C00740B3FFE70298007810384AF6AB21CD
S31508002FF0CAF6AA21A0FB011000090190019800F069
S31508003000070149F22A60C0F60100405C0299086689
S315080030100198042807D3FFE702990868042262F397
S315080030200900C86506E00299086840F2FF32904335
S31508003030C865FFE705E00299086820F0FF00C86543
S31508003040FFE70298C06D03B0704700BF00BF00BF1E
S3150800305084B00390039800680190039801680120E2
S3150800306045F20842C5F60202914200904ED0FFE7AB
S3150800307003980168012045F21C42C5F602029142F6
S31508003080009043D0FFE703980168012045F23042DB
S31508003090C5F602029142009038D0FFE7039801680E
S315080030A0012045F24442C5F60202914200902DD015
S315080030B0FFE703980168012045F25842C5F6020267
S315080030C09142009022D0FFE703980168012045F25B
S315080030D06C42C5F602029142009017D0FFE70398AA
S315080030E00168012045F28042C5F60202914200902D
S315080030F00CD0FFE7039800684AF66C31CAF2FD71F6
S315080031000844B0FA80F040090090FFE70098C0072D
S3150800311010B3FFE70398007808384CF6CD41CCF693
S31508003120CC41A0FB011000090290029945F6000067
S31508003130C5F6020000EB810003994866039945F637
S315080031408000C5F602008866029800F01F0101207B
S3150800315088400399C86635E00398007810384AF61F
S31508003160AB21CAF6AA21A0FB01100009029001981A
S3150800317040F2B841C4F2020188420CD8FFE7019830
S3150800318040F21041C4F20201884204D3FFE70298D4
S3150800319008300290FFE7029940F60000C4F20200E8
S315080031A000EB810003994866039940F68000C4F253
S315080031B002008866029800F01F01012088400399E2
S315080031C0C866FFE704B0704783B00290029800799A
S315080031D001900198002800F08A80FFE701980828E6
S315080031E000F28580FFE702980168012045F208424F
S315080031F0C5F60202914200904ED0FFE70298016898
S31508003200012045F21C42C5F602029142009043D0C5
S31508003210FFE702980168012045F23042C5F602022E
S315080032209142009038D0FFE702980168012045F2E4
S315080032304442C5F60202914200902DD0FFE702985B
S315080032400168012045F25842C5F6020291420090F3
S3150800325022D0FFE702980168012045F26C42C5F6C4
S3150800326002029142009017D0FFE7029801680120F8
S3150800327045F28042C5F60202914200900CD0FFE763
S31508003280029800684AF66C31CAF2FD710844B0FA31
S3150800329080F040090090FFE70098C00780B1FFE77B
S315080032A0019945F6FC00C5F6020000EB810002997B
S315080032B00867029945F64010C5F6020048670FE010
S315080032C0019940F6FC00C4F2020000EB8100029965
S315080032D00867029940F64010C4F202004867FFE703
S315080032E00198411E0120884002998867FFE703B0CC
S315080032F0704700BF00BF00BF80B588B0069006982B
S3150800330018B9FFE7012007902BE2069800681021FC
S31508003310C4F20201884200F08180FFE7069800683F
S315080033202821C4F20201884278D0FFE7069800688F
S315080033304021C4F20201884270D0FFE7069800686F
S315080033405821C4F20201884268D0FFE7069800684F
S315080033507021C4F20201884260D0FFE7069800682F
S315080033608821C4F20201884258D0FFE7069800680F
S31508003370A021C4F20201884250D0FFE706980068EF
S31508003380B821C4F20201884248D0FFE706980068CF
S3150800339040F21041C4F2020188423FD0FFE7069886
S315080033A0006840F22841C4F20201884236D0FFE79D
S315080033B00698006840F24041C4F2020188422DD0C6
S315080033C0FFE70698006840F25841C4F202018842B5
S315080033D024D0FFE70698006840F27041C4F2020163
S315080033E088421BD0FFE70698006840F28841C4F27D
S315080033F00201884212D0FFE70698006840F2A04111
S31508003400C4F20201884209D0FFE70698006840F234
S31508003410B841C4F20201884207D1FFE7069801685D
S31508003420086820F00100086006E006980168086848
S3150800343020F001000860FFE70698016801201022C5
S31508003440C4F202029142039000F0A380FFE70698B7
S31508003450016801202822C4F202029142039000F07A
S315080034609880FFE70698016801204022C4F202020C
S315080034709142039000F08D80FFE7069801680120CD
S315080034805822C4F202029142039000F08280FFE7BC
S315080034900698016801207022C4F202029142039044
S315080034A077D0FFE70698016801208822C4F2020255
S315080034B0914203906DD0FFE7069801680120A0228B
S315080034C0C4F202029142039063D0FFE706980168AE
S315080034D00120B822C4F202029142039059D0FFE7B4
S315080034E006980168012040F21042C4F20202914295
S315080034F003904ED0FFE706980168012040F2284263
S31508003500C4F202029142039043D0FFE7069801688D
S31508003510012040F24042C4F202029142039038D0A0
S31508003520FFE706980168012040F25842C4F20202F9
S31508003530914203902DD0FFE706980168012040F2DA
S315080035407042C4F202029142039022D0FFE7069825
S315080035500168012040F28842C4F2020291420390B7
S3150800356017D0FFE706980168012040F2A042C4F28E
S315080035700202914203900CD0FFE7069800684FF6C6
S315080035804831CBF6FD710844B0FA80F04009039043
S31508003590FFE70398C00708B3FFE70698016800200D
S315080035A00860069909684860069909688860069956
S315080035B00968C860069909680861069801682120A3
S315080035C048610698FFF75CFC05900698006E00F0C7
S315080035D01F013F208840059988607DE006980168AC
S315080035E0012045F20842C5F60202914202904ED0E9
S315080035F0FFE706980168012045F21C42C5F602025B
S315080036009142029043D0FFE706980168012045F2EF
S315080036103042C5F602029142029038D0FFE706987A
S315080036200168012045F24442C5F602029142029021
S315080036302DD0FFE706980168012045F25842C5F6E5
S3150800364002029142029022D0FFE706980168012003
S3150800365045F26C42C5F602029142029017D0FFE786
S3150800366006980168012045F28042C5F60202914299
S3150800367002900CD0FFE7069800684AF66C31CAF249
S31508003680FD710844B0FA80F040090290FFE70298FD
S31508003690C007E8B1FFE706980168002008600699A8
S315080036A00968486006990968886006990968C860C3
S315080036B00699096808610698FFF7E2FB04900698E0
S315080036C0006E00F01F01012088400499486002E05E
S315080036D00120079045E0FFE70698FFF7B9FC069832
S315080036E0406E48B1FFE70698416E002008600698CC
S315080036F0816EC06E4860FFE70698406888B1FFE7AC
S315080037000698406808280CD8FFE70698FFF75CFD7E
S315080037100698016F002008600698416F806F486020
S31508003720FFE70699002001900867069948670699F9
S31508003730886706990864069948640699886406990C
S31508003740C8640699086506994865069988650699BC
S315080037508863FFE7069900204863FFE70020079083
S31508003760FFE7079808B080BD80B586B0049003913E
S315080037700292019300200090049818B9FFE70120EF
S3150800378005905DE1FFE70498406B012803D1FFE748
S315080037900220059054E1049901204863FFE7FFE7FA
S315080037A00498806B012840F03C81FFE704990220C9
S315080037B08863049900208865049800681021C4F27B
S315080037C00201884200F08180FFE7049800682821FA
S315080037D0C4F20201884278D0FFE7049800684021C5
S315080037E0C4F20201884270D0FFE7049800685821A5
S315080037F0C4F20201884268D0FFE704980068702185
S31508003800C4F20201884260D0FFE704980068882164
S31508003810C4F20201884258D0FFE704980068A02144
S31508003820C4F20201884250D0FFE704980068B82124
S31508003830C4F20201884248D0FFE70498006840F2C3
S315080038401041C4F2020188423FD0FFE7049800689D
S3150800385040F22841C4F20201884236D0FFE70498B4
S31508003860006840F24041C4F2020188422DD0FFE7C9
S315080038700498006840F25841C4F20201884224D0F4
S31508003880FFE70498006840F27041C4F202018842DA
S315080038901BD0FFE70498006840F28841C4F2020191
S315080038A0884212D0FFE70498006840F2A041C4F2AB
S315080038B00201884209D0FFE70498006840F2B8413F
S315080038C0C4F20201884207D1FFE704980168086834
S315080038D020F00100086006E004980168086820F0F6
S315080038E001000860FFE704980399029A019B00F01B
S315080038F0ABF8049800681021C4F20201884200F06F
S315080039008180FFE7049800682821C4F202018842F2
S3150800391078D0FFE7049800684021C4F20201884283
S3150800392070D0FFE7049800685821C4F20201884263
S3150800393068D0FFE7049800687021C4F20201884243
S3150800394060D0FFE7049800688821C4F20201884223
S3150800395058D0FFE704980068A021C4F20201884203
S3150800396050D0FFE704980068B821C4F202018842E3
S3150800397048D0FFE70498006840F21041C4F20201FB
S3150800398088423FD0FFE70498006840F22841C4F215
S315080039900201884236D0FFE70498006840F24041A9
S315080039A0C4F2020188422DD0FFE70498006840F26D
S315080039B05841C4F20201884224D0FFE704980068FF
S315080039C040F27041C4F2020188421BD0FFE7049816
S315080039D0006840F28841C4F20201884212D0FFE72B
S315080039E00498006840F2A041C4F20201884209D056
S315080039F0FFE70498006840F2B841C4F20201884221
S31508003A0007D1FFE704980168086840F001000860DC
S31508003A1006E004980168086840F001000860FFE7BE
S31508003A200BE004994FF400608865FFE704990020CD
S31508003A304863FFE701200090FFE700980590FFE73D
S31508003A40059806B080BD00BF89B008900791069218
S31508003A5005930898C06D04900898C06D039008985F
S31508003A60016801201022C4F202029142029000F07D
S31508003A700381FFE70898016801202822C4F20202A0
S31508003A809142029000F0F880FFE70898016801204B
S31508003A904022C4F202029142029000F0ED80FFE754
S31508003AA00898016801205822C4F202029142029045
S31508003AB000F0E280FFE70898016801207022C4F24E
S31508003AC002029142029000F0D780FFE70898016849
S31508003AD001208822C4F202029142029000F0CC80B2
S31508003AE0FFE7089801680120A022C4F20202914269
S31508003AF0029000F0C180FFE7089801680120B8220B
S31508003B00C4F202029142029000F0B680FFE70898DC
S31508003B100168012040F21042C4F20202914202906A
S31508003B2000F0AA80FFE708980168012040F22842C1
S31508003B30C4F202029142029000F09E80FFE70898C4
S31508003B400168012040F24042C4F20202914202900A
S31508003B5000F09280FFE708980168012040F2584279
S31508003B60C4F202029142029000F08680FFE70898AC
S31508003B700168012040F27042C4F2020291420290AA
S31508003B807AD0FFE708980168012040F28842C4F21B
S31508003B900202914202906FD0FFE70898016801205F
S31508003BA040F2A042C4F202029142029064D0FFE7BA
S31508003BB008980168012040F2B842C4F20202914214
S31508003BC0029059D0FFE708980168012045F208429B
S31508003BD0C5F60202914202904ED0FFE708980168A6
S31508003BE0012045F21C42C5F602029142029043D0DA
S31508003BF0FFE708980168012045F23042C5F602023F
S31508003C009142029038D0FFE708980168012045F2F2
S31508003C104442C5F60202914202902DD0FFE7089869
S31508003C200168012045F25842C5F602029142029007
S31508003C3022D0FFE708980168012045F26C42C5F6D4
S31508003C4002029142029017D0FFE708980168012006
S31508003C5045F28042C5F60202914202900CD0FFE777
S31508003C60089800684AF66C31CAF2FD710844B0FA41
S31508003C7080F040090290FFE70298C00770B1FFE79D
S31508003C800898816EC06E48600898006F28B1FFE7F3
S31508003C900898416F806F4860FFE7FFE7089801685A
S31508003CA001201022C4F202029142019000F0A38082
S31508003CB0FFE70898016801202822C4F2020291420F
S31508003CC0019000F09880FFE70898016801204022DB
S31508003CD0C4F202029142019000F08D80FFE7089835
S31508003CE0016801205822C4F202029142019000F0B4
S31508003CF08280FFE70898016801207022C4F2020258
S31508003D009142019077D0FFE7089801680120882240
S31508003D10C4F20202914201906DD0FFE7089801684B
S31508003D200120A022C4F202029142019063D0FFE76B
S31508003D30089801680120B822C4F202029142019053
S31508003D4059D0FFE708980168012040F21042C4F2F2
S31508003D500202914201904ED0FFE7089801680120BF
S31508003D6040F22842C4F202029142019043D0FFE792
S31508003D7008980168012040F24042C4F202029142CA
S31508003D80019038D0FFE708980168012040F25842B0
S31508003D90C4F20202914201902DD0FFE7089801680B
S31508003DA0012040F27042C4F202029142019022D0F0
S31508003DB0FFE708980168012040F28842C4F202022F
S31508003DC09142019017D0FFE708980168012040F258
S31508003DD0A042C4F20202914201900CD0FFE7089873
S31508003DE000684FF64831CBF6FD710844B0FA80F00A
S31508003DF040090190FFE70198C00750B3FFE708980C
S31508003E00006E00F01F013F208840049988600898DA
S31508003E100168086820F480200860059808990968F0
S31508003E20486008988068402809D1FFE706980899ED
S31508003E3009688860079808990968C86008E00798BB
S31508003E40089909688860069808990968C860FFE7AC
S31508003E5082E008980168012045F20842C5F6020288
S31508003E60914200904ED0FFE708980168012045F27C
S31508003E701C42C5F602029142009043D0FFE708981B
S31508003E800168012045F23042C5F6020291420090CF
S31508003E9038D0FFE708980168012045F24442C5F684
S31508003EA00202914200902DD0FFE708980168012090
S31508003EB045F25842C5F602029142009022D0FFE729
S31508003EC008980168012045F26C42C5F60202914243
S31508003ED0009017D0FFE708980168012045F2804254
S31508003EE0C5F60202914200900CD0FFE708980068D8
S31508003EF04AF66C31CAF2FD710844B0FA80F04009FE
S31508003F000090FFE70098C00720B3FFE70898006E07
S31508003F1000F01F0101208840039948600598089918
S31508003F200968486008988068402809D1FFE706981C
S31508003F30089909688860079808990968C86008E0B8
S31508003F400798089909688860069808990968C860F2
S31508003F50FFE700E0FFE7FFE709B0704700BF00BFD3
S31508003F6080B588B0069005910492039300200290CC
S31508003F70069818B9FFE70120079063E3FFE706985C
S31508003F80406B012803D1FFE7022007905AE3069900
S31508003F9001204863FFE7FFE70698806B012840F099
S31508003FA04283FFE706990220886306990020886500
S31508003FB0069800681021C4F20201884200F0818048
S31508003FC0FFE7069800682821C4F20201884278D0E3
S31508003FD0FFE7069800684021C4F20201884270D0C3
S31508003FE0FFE7069800685821C4F20201884268D0A3
S31508003FF0FFE7069800687021C4F20201884260D083
S31508004000FFE7069800688821C4F20201884258D062
S31508004010FFE706980068A021C4F20201884250D042
S31508004020FFE706980068B821C4F20201884248D022
S31508004030FFE70698006840F21041C4F20201884280
S315080040403FD0FFE70698006840F22841C4F2020113
S31508004050884236D0FFE70698006840F24041C4F22D
S31508004060020188422DD0FFE70698006840F25841C1
S31508004070C4F20201884224D0FFE70698006840F29D
S315080040807041C4F2020188421BD0FFE70698006817
S3150800409040F28841C4F20201884212D0FFE706982E
S315080040A0006840F2A041C4F20201884209D0FFE745
S315080040B00698006840F2B841C4F20201884207D166
S315080040C0FFE706980168086820F00100086006E026
S315080040D006980168086820F001000860FFE706985E
S315080040E00599049A039BFFF7AFFC0698016801201F
S315080040F01022C4F202029142019000F0A380FFE769
S315080041000698016801202822C4F202029142019011
S3150800411000F09880FFE70698016801204022C4F263
S3150800412002029142019000F08D80FFE7069801682F
S3150800413001205822C4F202029142019000F08280C6
S31508004140FFE70698016801207022C4F20202914234
S31508004150019077D0FFE70698016801208822C4F20B
S315080041600202914201906DD0FFE70698016801208E
S31508004170A022C4F202029142019063D0FFE706989A
S3150800418001680120B822C4F202029142019059D076
S31508004190FFE706980168012040F21042C4F20202C5
S315080041A0914201904ED0FFE706980168012040F23F
S315080041B02842C4F202029142019043D0FFE70698D2
S315080041C00168012040F24042C4F202029142019085
S315080041D038D0FFE706980168012040F25842C4F239
S315080041E00202914201902DD0FFE70698016801204E
S315080041F040F27042C4F202029142019022D0FFE7D7
S3150800420006980168012040F28842C4F202029142EF
S31508004210019017D0FFE706980168012040F2A042F6
S31508004220C4F20202914201900CD0FFE7069800689A
S315080042304FF64831CBF6FD710844B0FA80F04009D4
S315080042400190FFE70198C007A8B1FFE70698006844
S3150800425000680B2161F3440006990968086006980E
S31508004260406C38B1FFE706980168086840F0080016
S315080042700860FFE714E0069800680068052161F306
S3150800428043000699096808600698406C38B1FFE74C
S3150800429006980168086840F004000860FFE7FFE731
S315080042A00698016801201022C4F202029142009089
S315080042B000F00381FFE70698016801202822C4F26E
S315080042C002029142009000F0F880FFE70698016824
S315080042D001204022C4F202029142009000F0ED80D3
S315080042E0FFE70698016801205822C4F202029142AB
S315080042F0009000F0E280FFE706980168012070222E
S31508004300C4F202029142009000F0D780FFE70698B7
S31508004310016801208822C4F202029142009000F04E
S31508004320CC80FFE7069801680120A022C4F20202A9
S315080043309142009000F0C180FFE7069801680120CD
S31508004340B822C4F202029142009000F0B680FFE75C
S3150800435006980168012040F21042C4F20202914216
S31508004360009000F0AA80FFE706980168012040F255
S315080043702842C4F202029142009000F09E80FFE7B4
S3150800438006980168012040F24042C4F202029142B6
S31508004390009000F09280FFE706980168012040F23D
S315080043A05842C4F202029142009000F08680FFE76C
S315080043B006980168012040F27042C4F20202914256
S315080043C000907AD0FFE706980168012040F28842FB
S315080043D0C4F20202914200906FD0FFE70698016886
S315080043E0012040F2A042C4F202029142009064D039
S315080043F0FFE706980168012040F2B842C4F20202BB
S315080044009142009059D0FFE706980168012045F2CD
S315080044100842C5F60202914200904ED0FFE7069880
S315080044200168012045F21C42C5F60202914200903D
S3150800443043D0FFE706980168012045F23042C5F6E9
S3150800444002029142009038D0FFE7069801680120E1
S3150800445045F24442C5F60202914200902DD0FFE78C
S3150800446006980168012045F25842C5F602029142B3
S31508004470009022D0FFE706980168012045F26C42B9
S31508004480C5F602029142009017D0FFE70698016828
S31508004490012045F28042C5F60202914200900CD0F6
S315080044A0FFE7069800684AF66C31CAF2FD710844BF
S315080044B0B0FA80F040090090FFE70098C007D0B135
S315080044C0FFE70698406E0068C003002807D5FFE797
S315080044D00698416E086840F480700860FFE7069801
S315080044E0006F38B1FFE70698016F086840F48070DE
S315080044F00860FFE7FFE7069800681021C4F202018A
S31508004500884200F08180FFE7069800682821C4F2F7
S315080045100201884278D0FFE7069800684021C4F275
S315080045200201884270D0FFE7069800685821C4F255
S315080045300201884268D0FFE7069800687021C4F235
S315080045400201884260D0FFE7069800688821C4F215
S315080045500201884258D0FFE706980068A021C4F2F5
S315080045600201884250D0FFE706980068B821C4F2D5
S315080045700201884248D0FFE70698006840F21041D9
S31508004580C4F2020188423FD0FFE70698006840F26D
S315080045902841C4F20201884236D0FFE7069800682F
S315080045A040F24041C4F2020188422DD0FFE7069846
S315080045B0006840F25841C4F20201884224D0FFE75D
S315080045C00698006840F27041C4F2020188421BD086
S315080045D0FFE70698006840F28841C4F20201884263
S315080045E012D0FFE70698006840F2A041C4F2020123
S315080045F0884209D0FFE70698006840F2B841C4F23D
S315080046000201884207D1FFE706980168086840F06A
S315080046100100086006E006980168086840F0010095
S315080046200860FFE70BE006994FF400608865FFE72E
S31508004630069900204863FFE701200290FFE70298E9
S315080046400790FFE7079808B080BD00BF00BF00BF0E
S3150800465080B58AB00890FDF7DBF80490089820B971
S31508004660FFE70120099000F0A1BC0898806B02289A
S315080046700CD0FFE7089980208865FFE70899002095
S315080046804863FFE70120099000F090BC089801688C
S3150800469001201022C4F202029142039000F0A38086
S315080046A0FFE70898016801202822C4F20202914215
S315080046B0039000F09880FFE70898016801204022DF
S315080046C0C4F202029142039000F08D80FFE7089839
S315080046D0016801205822C4F202029142039000F0B8
S315080046E08280FFE70898016801207022C4F202025E
S315080046F09142039077D0FFE7089801680120882245
S31508004700C4F20202914203906DD0FFE7089801684F
S315080047100120A022C4F202029142039063D0FFE76F
S31508004720089801680120B822C4F202029142039057
S3150800473059D0FFE708980168012040F21042C4F2F8
S315080047400202914203904ED0FFE7089801680120C3
S3150800475040F22842C4F202029142039043D0FFE796
S3150800476008980168012040F24042C4F202029142D0
S31508004770039038D0FFE708980168012040F25842B4
S31508004780C4F20202914203902DD0FFE7089801680F
S31508004790012040F27042C4F202029142039022D0F4
S315080047A0FFE708980168012040F28842C4F2020235
S315080047B09142039017D0FFE708980168012040F25C
S315080047C0A042C4F20202914203900CD0FFE7089877
S315080047D000684FF64831CBF6FD710844B0FA80F010
S315080047E040090390FFE70398C00780B1FFE70898E0
S315080047F00168086820F01E00086008980168486982
S3150800480020F08000486108980068059009E008983B
S315080048100168086820F00E0008600898006805908E
S31508004820FFE70898016801201022C4F202029142AB
S31508004830029000F00381FFE708980168012028220A
S31508004840C4F202029142029000F0F880FFE708984D
S31508004850016801204022C4F202029142029000F04F
S31508004860ED80FFE70898016801205822C4F2020289
S315080048709142029000F0E280FFE708980168012063
S315080048807022C4F202029142029000F0D780FFE73C
S315080048900898016801208822C4F202029142029017
S315080048A000F0CC80FFE7089801680120A022C4F236
S315080048B002029142029000F0C180FFE70898016861
S315080048C00120B822C4F202029142029000F0B6809A
S315080048D0FFE708980168012040F21042C4F202027C
S315080048E09142029000F0AA80FFE70898016801202B
S315080048F040F22842C4F202029142029000F09E80E1
S31508004900FFE708980168012040F24042C4F202021B
S315080049109142029000F09280FFE708980168012012
S3150800492040F25842C4F202029142029000F0868098
S31508004930FFE708980168012040F27042C4F20202BB
S31508004940914202907AD0FFE708980168012040F268
S315080049508842C4F20202914202906FD0FFE708989B
S315080049600168012040F2A042C4F20202914202907C
S3150800497064D0FFE708980168012040F2B842C4F203
S3150800498002029142029059D0FFE708980168012077
S3150800499045F20842C5F60202914202904ED0FFE760
S315080049A008980168012045F21C42C5F602029142A8
S315080049B0029043D0FFE708980168012045F230428B
S315080049C0C5F602029142029038D0FFE708980168BE
S315080049D0012045F24442C5F60202914202902DD0CA
S315080049E0FFE708980168012045F25842C5F6020219
S315080049F09142029022D0FFE708980168012045F20B
S31508004A006C42C5F602029142029017D0FFE7089859
S31508004A100168012045F28042C5F6020291420290E1
S31508004A200CD0FFE7089800684AF66C31CAF2FD71A7
S31508004A300844B0FA80F040090290FFE70298C007E0
S31508004A4038B1FFE70898416E086820F4807008605E
S31508004A50FFE7089800681021C4F20201884200F0B6
S31508004A608180FFE7089800682821C4F2020188427D
S31508004A7078D0FFE7089800684021C4F2020188420E
S31508004A8070D0FFE7089800685821C4F202018842EE
S31508004A9068D0FFE7089800687021C4F202018842CE
S31508004AA060D0FFE7089800688821C4F202018842AE
S31508004AB058D0FFE708980068A021C4F2020188428E
S31508004AC050D0FFE708980068B821C4F2020188426E
S31508004AD048D0FFE70898006840F21041C4F2020186
S31508004AE088423FD0FFE70898006840F22841C4F2A0
S31508004AF00201884236D0FFE70898006840F2404134
S31508004B00C4F2020188422DD0FFE70898006840F2F7
S31508004B105841C4F20201884224D0FFE70898006889
S31508004B2040F27041C4F2020188421BD0FFE70898A0
S31508004B30006840F28841C4F20201884212D0FFE7B9
S31508004B400898006840F2A041C4F20201884209D0E0
S31508004B50FFE70898006840F2B841C4F202018842AB
S31508004B6007D1FFE708980168086820F00100086087
S31508004B7006E008980168086820F001000860FFE769
S31508004B80FFE705980068C007B0B1FFE7FCF740FEED
S31508004B900499401A06280ED3FFE70899202088654D
S31508004BA0089903208863FFE7089900204863FFE710
S31508004BB001200990FAE1E4E708980168012010222B
S31508004BC0C4F202029142019000F0A380FFE7089820
S31508004BD0016801202822C4F202029142019000F0E5
S31508004BE09880FFE70898016801204022C4F2020273
S31508004BF09142019000F08D80FFE708980168012036
S31508004C005822C4F202029142019000F08280FFE726
S31508004C100898016801207022C4F2020291420190AC
S31508004C2077D0FFE70898016801208822C4F20202BB
S31508004C30914201906DD0FFE7089801680120A022F3
S31508004C40C4F202029142019063D0FFE70898016816
S31508004C500120B822C4F202029142019059D0FFE71E
S31508004C6008980168012040F21042C4F202029142FB
S31508004C7001904ED0FFE708980168012040F22842CB
S31508004C80C4F202029142019043D0FFE708980168F6
S31508004C90012040F24042C4F202029142019038D00B
S31508004CA0FFE708980168012040F25842C4F2020260
S31508004CB0914201902DD0FFE708980168012040F243
S31508004CC07042C4F202029142019022D0FFE708988E
S31508004CD00168012040F28842C4F202029142019022
S31508004CE017D0FFE708980168012040F2A042C4F2F5
S31508004CF00202914201900CD0FFE7089800684FF62F
S31508004D004831CBF6FD710844B0FA80F040090190AD
S31508004D10FFE70198C00760B1FFE70898C06D0790E4
S31508004D200898006E00F01F013F20884007998860A8
S31508004D300BE00898C06D06900898006E00F01F01F9
S31508004D400120884006994860FFE708980168012015
S31508004D501022C4F202029142009000F00381FFE79C
S31508004D600898016801202822C4F2020291420090A4
S31508004D7000F0F880FFE70898016801204022C4F295
S31508004D8002029142009000F0ED80FFE70898016862
S31508004D9001205822C4F202029142009000F0E280FB
S31508004DA0FFE70898016801207022C4F202029142C6
S31508004DB0009000F0D780FFE7089801680120882254
S31508004DC0C4F202029142009000F0CC80FFE70898F6
S31508004DD001680120A022C4F202029142009000F06C
S31508004DE0C180FFE7089801680120B822C4F20202D0
S31508004DF09142009000F0B680FFE70898016801200C
S31508004E0040F21042C4F202029142009000F0AA80D9
S31508004E10FFE708980168012040F22842C4F202021E
S31508004E209142009000F09E80FFE7089801680120F3
S31508004E3040F24042C4F202029142009000F0928091
S31508004E40FFE708980168012040F25842C4F20202BE
S31508004E509142009000F08680FFE7089801680120DB
S31508004E6040F27042C4F20202914200907AD0FFE703
S31508004E7008980168012040F28842C4F20202914271
S31508004E8000906FD0FFE708980168012040F2A04221
S31508004E90C4F202029142009064D0FFE708980168C4
S31508004EA0012040F2B842C4F202029142009059D061
S31508004EB0FFE708980168012045F20842C5F6020294
S31508004EC0914200904ED0FFE708980168012045F20C
S31508004ED01C42C5F602029142009043D0FFE70898AB
S31508004EE00168012045F23042C5F60202914200905F
S31508004EF038D0FFE708980168012045F24442C5F614
S31508004F000202914200902DD0FFE70898016801201F
S31508004F1045F25842C5F602029142009022D0FFE7B8
S31508004F2008980168012045F26C42C5F602029142D2
S31508004F30009017D0FFE708980168012045F28042E3
S31508004F40C5F60202914200900CD0FFE70898006867
S31508004F504AF66C31CAF2FD710844B0FA80F040098D
S31508004F600090FFE70098C007A0B1FFE70898816E98
S31508004F70C06E48600898006F58B1FFE70898016F3F
S31508004F80086820F4807008600898416F806F486050
S31508004F90FFE7FFE7089901208863FFE708990020E3
S31508004FA04863FFE7FFE700200990FFE709980AB082
S31508004FB080BD00BF00BF00BF80B586B004900498CE
S31508004FC018B9FFE70120059040E30498806B022892
S31508004FD006D0FFE70499802088650120059035E30F
S31508004FE00498016801201022C4F20202914202903C
S31508004FF000F0A380FFE70498016801202822C4F284
S3150800500002029142029000F09880FFE70498016836
S3150800501001204022C4F202029142029000F08D80E3
S31508005020FFE70498016801205822C4F2020291425F
S31508005030029000F08280FFE7049801680120702240
S31508005040C4F202029142029077D0FFE70498016801
S3150800505001208822C4F20202914202906DD0FFE735
S31508005060049801680120A022C4F20202914202902B
S3150800507063D0FFE7049801680120B822C4F202024F
S315080050809142029059D0FFE704980168012040F246
S315080050901042C4F20202914202904ED0FFE70498F1
S315080050A00168012040F22842C4F2020291420290AD
S315080050B043D0FFE704980168012040F24042C4F259
S315080050C002029142029038D0FFE704980168012055
S315080050D040F25842C4F20202914202902DD0FFE7F4
S315080050E004980168012040F27042C4F2020291421B
S315080050F0029022D0FFE704980168012040F2884216
S31508005100C4F202029142029017D0FFE704980168A0
S31508005110012040F2A042C4F20202914202900CD051
S31508005120FFE7049800684FF64831CBF6FD7108444E
S31508005130B0FA80F040090290FFE70298C0070028FD
S3150800514000F09C80FFE704990420886304980068AF
S315080051501021C4F20201884200F08180FFE704981A
S3150800516000682821C4F20201884278D0FFE7049833
S3150800517000684021C4F20201884270D0FFE7049813
S3150800518000685821C4F20201884268D0FFE70498F3
S3150800519000687021C4F20201884260D0FFE70498D3
S315080051A000688821C4F20201884258D0FFE70498B3
S315080051B00068A021C4F20201884250D0FFE7049893
S315080051C00068B821C4F20201884248D0FFE7049873
S315080051D0006840F21041C4F2020188423FD0FFE75E
S315080051E00498006840F22841C4F20201884236D089
S315080051F0FFE70498006840F24041C4F20201884281
S315080052002DD0FFE70498006840F25841C4F2020125
S31508005210884224D0FFE70498006840F27041C4F23F
S31508005220020188421BD0FFE70498006840F28841D3
S31508005230C4F20201884212D0FFE70498006840F2DF
S31508005240A041C4F20201884209D0FFE70498006829
S3150800525040F2B841C4F20201884207D1FFE7049838
S315080052600168086820F00100086006E004980168F3
S31508005270086820F001000860FFE7E3E10498016888
S31508005280086820F00E000860049800681021C4F22F
S315080052900201884200F08180FFE70498006828210F
S315080052A0C4F20201884278D0FFE7049800684021DA
S315080052B0C4F20201884270D0FFE7049800685821BA
S315080052C0C4F20201884268D0FFE70498006870219A
S315080052D0C4F20201884260D0FFE70498006888217A
S315080052E0C4F20201884258D0FFE704980068A0215A
S315080052F0C4F20201884250D0FFE704980068B8213A
S31508005300C4F20201884248D0FFE70498006840F2D8
S315080053101041C4F2020188423FD0FFE704980068B2
S3150800532040F22841C4F20201884236D0FFE70498C9
S31508005330006840F24041C4F2020188422DD0FFE7DE
S315080053400498006840F25841C4F20201884224D009
S31508005350FFE70498006840F27041C4F202018842EF
S315080053601BD0FFE70498006840F28841C4F20201A6
S31508005370884212D0FFE70498006840F2A041C4F2C0
S315080053800201884209D0FFE70498006840F2B84154
S31508005390C4F20201884207D1FFE704980168086849
S315080053A020F00100086006E004980168086820F00B
S315080053B001000860FFE70498016801201022C4F282
S315080053C002029142019000F00381FFE70498016808
S315080053D001202822C4F202029142019000F0F880CE
S315080053E0FFE70498016801204022C4F202029142B4
S315080053F0019000F0ED80FFE704980168012058222B
S31508005400C4F202029142019000F0E280FFE704989C
S31508005410016801207022C4F202029142019000F054
S31508005420D780FFE70498016801208822C4F20202A7
S315080054309142019000F0CC80FFE7049801680120B2
S31508005440A022C4F202029142019000F0C180FFE757
S31508005450049801680120B822C4F202029142019020
S3150800546000F0B680FFE704980168012040F2104278
S31508005470C4F202029142019000F0AA80FFE7049864
S315080054800168012040F22842C4F2020291420190CA
S3150800549000F09E80FFE704980168012040F2404230
S315080054A0C4F202029142019000F09280FFE704984C
S315080054B00168012040F25842C4F20202914201906A
S315080054C000F08680FFE704980168012040F27042E8
S315080054D0C4F20202914201907AD0FFE7049801686B
S315080054E0012040F28842C4F20202914201906FD034
S315080054F0FFE704980168012040F2A042C4F20202C4
S315080055009142019064D0FFE704980168012040F2B7
